:020000040800F2
:1000000000000120910F0008C90F0008C90F000867
:10001000C90F0008C90F0008C90F00080000000040
:10002000000000000000000000000000C90F0008F0
:10003000C90F000800000000C90F0008C90F000820
:10004000C90F0008C90F0008C90F0008C90F000830
:10005000C90F0008C90F0008C90F0008C90F000820
:10006000C90F0008C90F0008C90F0008C90F000810
:10007000C90F0008C90F0008C90F0008C90F000800
:10008000C90F0008C90F0008C90F0008092000089F
:100090000D200008C90F0008191F0008C90F00082B
:1000A000C90F0008C90F0008C90F0008C90F0008D0
:1000B000C90F00080000000000000000C90F000880
:1000C000C90F00080000000000000000C90F000870
:1000D00000000000C90F0008C90F00080000000060
:1000E000C90F0008C90F0008000000000000000050
:1000F0000000000000000000000000000000000000
:10010000000000000000000000000000C90F00080F
:100110000000000000000000C90F0008C90F00081F
:10012000C90F0008C90F0008C90F0008C90F00084F
:10013000C90F0008000000000000000000000000DF
:10014000C90F0008C90F0008C90F0008C90F00082F
:10015000C90F0008C90F0008C90F0008C90F00081F
:10016000C90F0008C90F0008C90F000800000000EF
:10017000C90F0008C90F00080000000000000000BF
:10018000C90F0008C90F0008C90F000810B5054CB9
:10019000237833B9044B13B10448AFF30080012333
:1001A000237010BD580B00200000000058BE00084E
:1001B000084B10B51BB108480849AFF30080084848
:1001C000036803B910BD074B002BFBD0BDE81040FE
:1001D000184700BF0000000058BE00085C0B00205C
:1001E000500B002000000000154B002B08BF134BE4
:1001F0009D46A3F5803A00218B460F461348144ACA
:10020000121A04F0B1FB0F4B002B00D098470E4B95
:10021000002B00D098470020002104000D000D485D
:10022000002802D00C4801F098F904F0ADF9200044
:10023000290001F019FF01F08DF900BF000008004E
:10024000000001200000000059200008580B002089
:10025000501000205B1500080000000082B00190E3
:100260000091009B002B05D0019B9B68019A1268AE
:100270001A6004E0019BDB68019A12681A6002B000
:10028000704700BF00B583B001900B46ADF8023057
:10029000019B00221A60019B00225A60019B0022F0
:1002A0009A60019B0022DA60019B00221A82019B66
:1002B00000225A61019B00229A61019ABDF9023025
:1002C0001046194602F074FC019B184603B05DF815
:1002D00004FB00BF00B583B001900091019B18465C
:1002E0000099FFF7BBFF03B05DF804FB00B583B0D6
:1002F0000190009101980099FFF7ECFF019B1846CF
:1003000003B05DF804FB00BF00B583B00190019B12
:10031000DB68002B04D0019BDB689B680198984741
:10032000019B184603B05DF804FB00BF00B583B025
:100330000190019800F006F8019B184603B05DF8A3
:1003400004FB00BF82B00190019B184602B07047C9
:1003500000B583B00190019B124A1A60019B124ABA
:10036000C3F8BC20019B114AC3F8C020019BD433C1
:100370001846FFF7DBFF019800F05CF8019BBC33E7
:10038000184603F075FA019B184603F035F8002370
:10039000002B02D0019801F046FA019B184603B0E9
:1003A0005DF804FB50B6000870B60008D0B600082F
:1003B000A0F1BC00FFF7CCBFA0F1C000FFF7C8BFA1
:1003C00000B583B001900198FFF7C2FF019801F0DA
:1003D0002AFA019B184603B05DF804FBA0F1BC00AB
:1003E000EEE700BFA0F1C000EAE700BF00B585B0AE
:1003F00003900291039B012B12D1029B4FF6FF72D7
:1004000093420DD14FF416530093074802210F2257
:10041000002302F02BFC04480449054A01F098F837
:1004200005B05DF804FB00BF740B00205103000809
:100430008801002082B00190019B184602B07047ED
:1004400008B501204FF6FF71FFF7D0FF08BD00BFD0
:1004500082B00190019B5B681A68019B1B68134086
:10046000002B01D0012300E00023184602B07047A2
:1004700000B583B00190019B1846FFF7E9FF0346E2
:10048000184603B05DF804FB00B583B001900198F5
:10049000FFF7EEFF0346184603B05DF804FB00BF0C
:1004A00000B583B0012301930D4804F0BFFA4FF06B
:1004B0007E5003F043F90B48FFF7E6FF0346002B9D
:1004C0000CBF01230023DBB206481946FFF70EFFDD
:1004D000019B5A1C01920448194604F0A7FAE6E76A
:1004E000A0B100084C0C0020B4B1000800B583B0E6
:1004F00001900091019B012B08D1009B4FF6FF72E8
:10050000934203D103481321FFF7BCFE03B05DF80B
:1005100004FB00BF4C0C002008B501204FF6FF7112
:10052000FFF7E4FF08BD00BF074AD36823F4E06388
:100530001B041B0C43F0BF63000243F4003300F4C0
:10054000E0600343D360704700ED00E037B51E4D17
:10055000AB6DDA00044618D502F09CFAB0F5007FC6
:1005600023D1802C29D9A02C8CBF02200120174A2E
:10057000136823F0070303431360136803F00703B2
:10058000181A18BF012003B030BDAB6D43F0805383
:10059000AB65AB6D03F080530193019B02F07AFAD7
:1005A000AB6D23F08053AB65D8E7802C07D808D01B
:1005B000A4F1700358425841D9E70020D7E703203F
:1005C000D5E70220D3E700BF001002400020024020
:1005D0002F4B9A6812F00C0F10B509D09A6802F0F0
:1005E0000C020C2A2DD1DA6802F00302012A28D16C
:1005F0001A682849120755BFD3F894201A68C2F325
:100600000322C2F3031251F82220996811F00C0F53
:100610000CBF10460020996801F00C010C2930D164
:10062000DC68D868C0F30210411C04F00300022803
:1006300019D0032826D0B2FBF1F2D868C0F3062007
:1006400017E09A6802F00C02042A07D09A6802F0B8
:100650000C02082A04D110480022DCE70F48FBE70F
:1006600000200246D7E7DA680C48C2F30622B0FB46
:10067000F1F0DB68C3F34163013350435B00B0FB2F
:10068000F3F010BDDA680448C2F30622EFE700BFBA
:100690000010024004B6000800127A000024F400A2
:1006A00003682DE9F3410446D80639D5AB4DAB6854
:1006B00013F00C0F62D12B68990703D5A3690BB90E
:1006C00001207FE02B68206A1A0756BFD5F89430C6
:1006D0002B681B0903F0F00383423AD2FFF736FF81
:1006E0000028EDD12B6843F008032B602B68226AA9
:1006F00023F0F00313432B606B68E26923F47F431C
:1007000043EA02236B60FFF763FFAB68944AC3F3CD
:100710000313D35CD840934B18600F2000F00AFEFF
:100720002368D80761D42368990700F1A98023685A
:100730001A0700F1E78023685B0700F11581236841
:100740009A0600F17C81A16A002940F0A381002073
:1007500038E02B6843F008032B602B6823F0F0038C
:1007600003432B606B68E26923F47F4343EA02236F
:100770006B60FFF7EBFE0028C5D0A1E7A36923B3A8
:100780002B6843F001032B6002F08CF906462B68BE
:100790009B0711D52B6843F008032B602B68226A56
:1007A00023F0F00313432B606B68E26923F47F436B
:1007B00043EA02236B60B3E702F074F9801B02285E
:1007C000E5D9032002B0BDE8F0812B6823F00103D6
:1007D0002B6002F067F906462B689F07A0D502F050
:1007E00061F9801B0228F7D9EBE75C4DAB6803F099
:1007F0000C03082B09D0AB6803F00C030C2B0BD1B6
:10080000EB6803F00303032B06D12B689A038AD508
:100810006368002B87D153E76368B3F5803F10D13D
:100820002B6843F480332B6002F03CF906462B68BA
:100830009B033FF578AF02F035F9801BC828F6D945
:10084000BFE7B3F5A02F04D12B6843F480232B60BE
:10085000E6E72A6822F480322A602A6822F480229D
:100860002A60002BE0D102F01DF906462B689F0399
:100870007FF559AF02F016F9801BC828F6D9A0E71A
:10088000364DAB6803F00C03042B09D0AB6803F0C2
:100890000C030C2B13D1EB6803F00303022B0ED1D6
:1008A0002B685E0503D5E368002B3FF409AF6B6846
:1008B000226923F0F85343EA02636B6037E7E36889
:1008C0007BB12B6843F480732B6002F0EBF8064693
:1008D0002B685805EBD402F0E5F8801B0228F7D905
:1008E0006FE72B6823F480732B6002F0DBF8064679
:1008F0002B6859057FF51BAF02F0D4F8801B022846
:10090000F6D95EE76369154D9BB1D5F8943043F095
:100910000103C5F8943002F0C5F80646D5F89430C6
:100920009F073FF508AF02F0BDF8801B0228F5D9FC
:1009300047E7D5F8943023F00103C5F8943002F06E
:10094000B1F80646D5F8943098077FF5F4AE02F07A
:10095000A9F8801B0228F5D933E700BF0010024038
:10096000ECB50008900200208F4DAB6DD90027D464
:10097000AB6D43F08053AB65AB6D03F080530193D7
:10098000019B0127894E3368DA051BD5A368012B2B
:1009900029D1D5F8903043F00103C5F8903002F02A
:1009A00081F841F288380646D5F89030980740D54E
:1009B000002F3FF4C4AEAB6D23F08053AB65BEE6B1
:1009C0000027DFE7336843F48073336002F06AF88E
:1009D00080463368DB05D9D402F064F8A0EB080048
:1009E0000228F6D9EDE6052B06D1D5F8903043F074
:1009F0000403C5F89030CCE7D5F8902022F001022E
:100A0000C5F89020D5F8902022F00402C5F8902077
:100A1000002BC4D102F046F841F288380646D5F8DA
:100A200090309907C4D502F03DF8801B4045F6D9B7
:100A3000C7E602F037F8801B4045B5D9C1E6636AC6
:100A4000594D9BB1D5F8983043F00103C5F8983063
:100A500002F028F80646D5F898309B073FF573AEAC
:100A600002F020F8801B0228F5D9AAE6D5F89830C4
:100A700023F00103C5F8983002F014F80646D5F8C3
:100A800098309F077FF55FAE02F00CF8801B0228BC
:100A9000F5D996E6444B9A6802F00C020C2A1D46E2
:100AA00056D01B68022923F080732B6036D101F0E9
:100AB000F9FF06462B6898012AD4A36B626BDB060C
:100AC00043EA0223E26A1343226B013A43EA021328
:100AD000E26B5208013A43EA4253226C5208013A4F
:100AE00043EA4263EB602B6843F080732B60EB6852
:100AF00043F08073EB6001F0D5FF04462B68990149
:100B00003FF525AE01F0CEFF001B0228F6D958E6CE
:100B100001F0C8FF801B0228CCD952E62B681A01CD
:100B20005EBFEB6823F00303EB60EB6823F0887390
:100B300023F48033EB6001F0B5FF04462B689B0182
:100B40007FF505AE01F0AEFF001B0228F6D938E6AE
:100B50009A68E16A02F003028A427FF4B1AD9A68B2
:100B6000216B02F070028A427FF4AAAD9A68616B31
:100B700002F4FE428A427FF4A3AD9A68A16B02F4AC
:100B800000328A427FF49CAD9A68E16B02F4C002A5
:100B90008A427FF495AD9868236C00F0C060C01A5B
:100BA00018BF01200EE600BF001002400070004098
:100BB000564A136803F007038B422DE9F0410546BE
:100BC0000E462BD32B68D90735D429688A0700F144
:100BD00083804E4A136803F007039E42C0F084806E
:100BE00011F0040F4A4C40F08A800B0706D5A36829
:100BF0002A6923F4605343EAC203A360FFF7E8FCC9
:100C0000A368444AC3F30313D35CD840424B186033
:100C10000F2000F08FFB0020BDE8F081136823F067
:100C200007030B431360136803F007039942C9D00D
:100C30000120BDE8F0816A68354C032A23681CD185
:100C400013F0007FF4D0A36823F003031343A360E1
:100C500001F028FF6B68032B074641F2883818D152
:100C6000A36803F00C030C2BAFD001F01BFFC01BDB
:100C70004045F5D90320BDE8F081022A02D113F4E2
:100C8000003FDFE712B913F0020FDBE713F4806FC8
:100C9000D8E7022B0AD1A36803F00C03082B94D0E9
:100CA00001F000FFC01B4045F5D9E3E773B9A36825
:100CB00013F00C0F89D001F0F5FEC01B4045F6D9AA
:100CC000D8E701F0EFFEC01B4045D3D8A36803F07E
:100CD0000C03042BF5D178E70D4AA868936823F03C
:100CE000F0030343936074E7136823F0070333436F
:100CF0001360136803F007039E4299D170E7A3685D
:100D0000EA6823F4E0631343A3606EE70020024027
:100D100000100240ECB5000890020020044B054A88
:100D20009B68C3F30223D35C034A1068D840704722
:100D300000100240FCB5000890020020044B054A58
:100D40009B68C3F3C223D35C034A1068D840704742
:100D500000100240FCB50008900200200F23036041
:100D60000B4B9A6802F0030242609A6802F0F002AC
:100D700082609A6802F4E062C2609B68DB0803F458
:100D8000E0630361034B1B6803F007030B607047CC
:100D90000010024000200240002808DB4209012325
:100DA00000F01F0003FA00F0014B43F822007047E7
:100DB00000E100E000280DDB4309012200F01F00E4
:100DC00002FA00F02033044A42F82300BFF34F8FA9
:100DD000BFF36F8F704700BF00E100E073B500F014
:100DE000C9FF051E2DDB184E56F82500002828D017
:100DF0007823164C6B43E358DA69120606D5DB6993
:100E0000190603D5124B01211B68984778236B43C1
:100E1000E358DA69920608D5DB69980605D50C4BCC
:100E200056F825001B680021984778235D436359D5
:100E3000DA69110705D5DA69120742BF9B8C9BB2AC
:100E4000019302B070BD00BF6C0C0020580E002052
:100E5000680C00200148FFF7C1BF00BF00800040C0
:100E60000148FFF7BBBF00BF004400400148FFF747
:100E7000B5BF00BF00380140034B19604168034B08
:100E800043F82120704700BF680C00206C0C002044
:100E900070B490E84800214883421FD000F53840E4
:100EA000834206D0A0F5744083421AD11C4C262000
:100EB00001E01C4C252078231B4D7343BAB1EA583E
:100EC000136889B943F020031360184B00F1100236
:100ED0009B6843F8224070BCFFF75EBF144C46206D
:100EE000E9E700242046E6E743F08003ECE7EB580F
:100EF0001A6849B922F020021A601B6813F0800FAB
:100F000009D170BCFFF756BF22F080021A601B683F
:100F100013F0200FF4E770BC704700BF0080004062
:100F2000610E00086D0E0008580E002000ED00E074
:100F3000550E000838B545680446204600F07CFE92
:100F40000028FAD07823054AE1686B43D358988C7F
:100F500009B9C0B238BDC0F3080038BD580E002032
:100F600070B5466805460C46284600F075FE002818
:100F7000FAD07823054AE9687343D35811B9E4B22B
:100F80001C8570BDC4F30804FAE700BF580E0020AA
:100F9000DFF824D0002103E0084B5B5843500431B4
:100FA0000748084B42189A42F6D301F0EBFCFFF7D2
:100FB0001BF97047FEE7000000000120D4BE0008C6
:100FC00088010020540B0020FEE730B5C36891FA79
:100FD000A1F4B4FA84F491FAA1F10325B1FA81F1F4
:100FE000640005FA04F4490023EA040302FA01F15B
:100FF0001943C16030BD012A02D0022A18BF002265
:10100000FFF7E3BF2DE9F0410E46411C044604D131
:101010003E224449444802F0A5F804F00F08434B2F
:10102000C4F3031053F8285000F0E4F806F0070763
:101030000446836895FAA5F1B1FA81F195FAA5F213
:101040000320490000FA01F1B2FA82F223EA010317
:101050005200022101FA02F21343A360874236D8FC
:10106000DFE807F01D1D021DB8F1070FC6F30320CE
:1010700017D9626A2B0A93FAA3F1B1FA81F193FAB4
:10108000A3F34FF00F0EB3FA83F389000EFA01F1C8
:101090009B0022EA010200FA03F3134363623B461A
:1010A0001BE0226A95FAA5F3B3FA83F395FAA5F14A
:1010B0004FF00F0EB1FA81F19B000EFA03F3890095
:1010C00022EA030200FA01F313432362E7E76722EF
:1010D0001449174802F046F80023226895FAA5F053
:1010E000B0FA80F095FAA5F14FF0030EB1FA81F154
:1010F00040000EFA00F0490022EA00028B40013F56
:101100001343012F236005D8636832074CBF2B437C
:10111000AB436360C6F3011229462046BDE8F041A7
:10112000FFF769BF1CB2000874B20008DCB1000808
:101130005FB90008431C70B506460D4604D18822ED
:101140001E491F4802F00EF806F00F021D4BC6F3B1
:10115000031053F8224000F04DF8066894FAA4F109
:10116000B1FA81F394FAA4F259000323B2FA82F29D
:101170008B4033405200D340013B012B05D8EB1E7E
:10118000022B436809D823434360032D08D1012271
:101190002146BDE87040FFF72EBF23EA04034360F9
:1011A000012DF4D0052D01D0022D01D10222EFE74F
:1011B00021460022BDE87040FFF707BF1CB20008BF
:1011C00074B20008DCB1000830B5036891FAA1F4EC
:1011D000B4FA84F491FAA1F10325B1FA81F1640023
:1011E00005FA04F4490023EA040302FA01F1194361
:1011F000016030BD1FB5072838D8DFE800F00413C0
:101200001F373737372B1C4BDA6C42F00102DA6498
:10121000DB6C03F001030093009B4FF0904005B09E
:101220005DF804FB144B1548DA6C42F00202DA64F4
:10123000DB6C03F002030193019BF0E70E4B1048B7
:10124000DA6C42F00402DA64DB6C03F0040302930C
:10125000029BE4E7084B0B48DA6C42F08002DA6448
:10126000DB6C03F080030393039BD8E7064802F08E
:101270001DFA0020D3E700BF001002400004004820
:1012800000080048001C0048E8B20008431C10B5E4
:10129000044604D174220649064801F063FF204643
:1012A0000021FFF7AFFE04F00F040120A04010BDA5
:1012B00009B3000874B2000870B504464B1C0E4612
:1012C000218218D0C1F30310FFF794FF0546304682
:1012D000FFF7DCFF238A084A656103F00F032060F3
:1012E00052F82330A36105F11003636005F1180380
:1012F0002835A360E56070BDDCB10008B0F91000CE
:10130000FFF718BF0A4619B981694069FFF75CBF4A
:101310000122F9E7064B1B681A69910707D5DA68BD
:10132000920704D56FF002021A6101F01FBD7047E9
:101330000C10002010B588B001A903A8FFF70EFD1E
:10134000FFF7ECFC1D4B01909A6D42F001029A658B
:101350009A6D02F001020292029A9A6B42F0010227
:101360009A639A6B22F001029A63154B06994FF02B
:1013700080421A604FF0FF32DA60124AD9B9B0FBEE
:10138000F2F00138002458600D481C619C605C61DB
:101390009C6100F0F7FB0C4B0C4A9B680848C3F8B3
:1013A000B0200B4B4FF080521A60214600F02EFC0B
:1013B000204608B010BD4000E1E700BF0010024029
:1013C0000C10002040420F0000ED00E01513000853
:1013D00000E100E000207047036801221B69002142
:1013E0001847036800221B691146184703681B69E8
:1013F000184703689B69184703689B6A18470029C8
:101400000CBF6FF0180000207047012070471120BA
:10141000704770476FF01C0070476FF01500704701
:10142000012070470020704770470000F8B5074E54
:1014300015460C468F18BC4205D014F8011B3046E7
:10144000FFF78EFDF7E72846F8BD00BFC00F00206C
:1014500038B58DB215F0010405D0084800F0ECFB5A
:10146000041C18BF0124EB0605D5044800F0F4FB6A
:1014700008B144F01004204638BD00BFC00F002062
:1014800010B5044603F020F9204610BD10B50C46F7
:101490002AB10448FFF74EFD2070012010BD104610
:1014A00010BD00BFC00F002038B51D46074B0360BC
:1014B000074B1B68044633B9064800F071FC294607
:1014C000044800F019FC204638BD00BFE0B3000816
:1014D000900C0020C00F00200020704700207047B3
:1014E00008B5012000F036F80C4A136810B518440E
:1014F000EFF30881884205D3094B0C221A604FF0A4
:10150000FF3010BD07490C6824B107490968214420
:101510008842F1D21060184610BD00BF8C02002036
:101520004C100020880C00208C0C0020074C08B5C3
:1015300023680546986802F097FB2368D86802F094
:1015400093FB0DB100F082FAFEE700BFC806002051
:101550000120704708B5FFF7E9FF0120704700211F
:1015600003F00ABB7047704708B5FFF7FBFF08BDE3
:1015700008B5FFF7F8FF08BD10B5037803F00303C3
:10158000012B04460CD02BB140F24A5205490648C3
:1015900001F0E8FD237843F002032370012010BD21
:1015A000002010BD28B400087FB4000810B50378EF
:1015B00003F00303022B044605D040F252520549C2
:1015C000054801F0CFFD237823F0030343F0010326
:1015D000237010BD28B40008A5B400083F2870B5DA
:1015E00004462FDC184D55F820305A1C13D1022820
:1015F00011DCFFF773FF034658B92046FFF76CFF75
:10160000034630B9114E3378BFF35B8FDB0704D547
:101610000F4B45F82430184670BD3046FFF7ACFF3D
:101620000028F5D04FF416530F2202210848FFF787
:101630003BFF3046FFF7BAFF064A07490448FFF769
:1016400087FFE5E70023E6E78C010020780C002007
:10165000840C0020880100202914000838B50546B4
:10166000FFF7BCFF0B4B002443F8254030B902F0D4
:10167000EBF9092303604FF0FF3038BD03685B6965
:101680009847051E04DA02F0DFF96D420560F2E7C3
:10169000204638BD8C010020FFF7E0BF38B50C466E
:1016A0001546FFF79BFF38B902F0CEF90923036016
:1016B0004FF0FF34204638BD03682146DB682A46D8
:1016C0009847041EF6DA02F0BFF964420460EFE7BF
:1016D00008B5131E06DA02F0B7F9162303604FF0BF
:1016E000FF3008BD04D0FFF7D9FF40EAE07008BD25
:1016F000184608BD38B50C461546FFF76FFF38B9D8
:1017000002F0A2F9092303604FF0FF34204638BDF0
:10171000036821469B682A469847041EF6DA02F0C1
:1017200093F964420460EFE7002A08B503DBBDE8E3
:101730000840FFF7DFBF02F087F9162303604FF080
:10174000FF3008BD10B5FFF749FF044628B902F085
:101750007BF909230360204610BD0368DB699847C5
:10176000041EF8DA02F070F9644204600024F2E723
:101770001FB504220C4640230DEB020101900DF130
:1017800009008DF8083002F0F1FF214602A802F0AE
:10179000A5FB044630B10198FFF7D4FF10B12046F5
:1017A000FFF7DDFE204604B010BDFFF7CBBF38B514
:1017B0000C461546FFF712FF38B902F045F9092328
:1017C00003604FF0FF34204638BD036821461B6993
:1017D0002A469847041EF6DA02F036F9644204609D
:1017E000EFE7FFF7E4BF38B50D46FFF7F7FE044615
:1017F00030B902F029F9092303604FF0FF3038BDFA
:101800000368DB699847002814BF4FF400534FF476
:1018100000436B60236820469B6A9847286100203C
:1018200038BDFFF7E0BF02F04FBF0000034610B520
:1018300053F8042B044602B9036022689A4204D08C
:101840005D220349034801F08DFC206810BD00BFF4
:1018500063B30008C2B3000810B504460948FFF797
:10186000E5FF0023084A194652F82300A04208BFAA
:1018700042F823100133402BF6D10248FFF7D6FF80
:1018800010BD00BF7C0C00208C01002010B50F485B
:10189000FFF7CCFF0E4B032453F824206AB1013428
:1018A000402CF9D102F0D0F8182303600748FFF765
:1018B000BDFF4FF0FF34204610BD4FF0FF3203480C
:1018C00043F82420FFF7B2FFF5E700BF7C0C0020AF
:1018D0008C01002010B50446FFF7D8FF0028A4BFF4
:1018E000014B43F8204010BD8C01002070B5064626
:1018F0000C46FFF7EFFF054690B12146FFF738FF92
:10190000044630B9074B53F82520964203D143F8DB
:101910002500204670BD02F097F809230360F8E720
:101920000446F6E78C0100200EB42DE9F04185B0A5
:101930000546FFF7ABFF041E13DB0023294602A870
:10194000019301F09BFD02A801F0EAFD1B4D064644
:1019500068B902F079F81323036045F824604FF06A
:10196000FF34204605B0BDE8F04103B0704702A83F
:1019700001F0C4FD074602A837B101F0C8FD01908F
:10198000019B45F82430ECE701F0AFFD0646002846
:10199000DFD0036802A8D3F8088001F09BFD0B9B01
:1019A000024601A93046C04706460028E8D002F0AA
:1019B0004BF87642066045F82470D0E78C01002091
:1019C00073B50E461849054603F0AEF9044620B932
:1019D000FFF704FE204602B070BD1449284603F00C
:1019E000A3F920B90120FFF7F9FD0124F2E710491E
:1019F000284603F099F920B90220FFF7EFFD0224F1
:101A0000E8E72B78402B07D10422691C0DEB02007C
:101A100002F0ACFE019CDDE726F400412846FFF70A
:101A200083FF0446D6E700BFECB40008F3B4000817
:101A3000E4B40008704708B50320FEF775FD0F20D9
:101A4000FFF778FCFFF7F6FF002008BD10B588B05F
:101A500001F0A6FB132101A801F0AAF80424039BBE
:101A6000019A1A60962001F077FE049B019A1A6091
:101A7000962001F071FE013CF1D10424039B019AF0
:101A80001A604FF4C87001F067FE049B019A1A6057
:101A90004FF4C87001F060FE013CEFD1DEE70000BA
:101AA00070B50D46A0B0044601F07AFB2B462246E5
:101AB0008021684604F0CEFD051E03DC01F086FBA4
:101AC00020B070BD094B1B6823B90F2202210848C2
:101AD00000F066F9064E00241DF80410304601346B
:101AE000FFF73EFAA542F7D1E8E700BF900C0020CF
:101AF000C00F00200FB407B504A951F8040B0191E1
:101B0000FFF7CEFF03B05DF804EB04B070477047F9
:101B10001A4A0368904210B502D0B0F1804F09D143
:101B20004C6823F07003904243EA040309D0B0F1FB
:101B3000804F06D0124A904203D002F58062904254
:101B400003D1CA6823F4407313434A6923F0800326
:101B5000134303608B68C3620B688362074B984230
:101B600007D003F5A053984203D003F58063984251
:101B700001D10B6903630123436110BD002C0140B7
:101B80000040014010B50446A0B190F83D3003F08C
:101B9000FF021BB980F83C20FFF7B9FF022384F84D
:101BA0003D302068211DFFF7B3FF012384F83D304D
:101BB000002010BD012010BD036A10B501248C4027
:101BC00023EA04030362036A8A401A43026210BDD7
:101BD00010B5044601220068FFF7EEFF23680A4AA9
:101BE000934207D002F5A052934203D002F58062DF
:101BF000934203D15A6C42F400425A641A6842F08C
:101C000001021A60002010BD002C0140FFF7E0BF68
:101C10000FB407B5064B07491B6805AAD86801929F
:101C200004F096FC03B05DF804EB04B0704700BF0D
:101C3000C8060020FBB40008426878235343054AD5
:101C4000D358DA69120744BF08221A62D869C0F370
:101C500040107047580E0020426878235343034ACF
:101C6000D358D869C0F3C010704700BF580E002089
:101C700042680168782353431D4A10B599509C1857
:101C800082686260C368A3600369E360436923619B
:101C9000036AA3610023A4F85230E361A4F8503032
:101CA000A4F85A30A4F85830B0F91A30013312D1E0
:101CB000082363610F4B994208D1B2F5165F2046A5
:101CC00010D800F010FF204600F0F7FE2046BDE8D7
:101CD000104000F024BEB0F9183001330CBF0423CB
:101CE0000C23E6E700F02BFF204600F012FFEDE7A3
:101CF000580E00200080004030B502681A4B0446A0
:101D00009A4297B00D46A16020D15422002101A82B
:101D100002F02AFEB5F5165F22DC144BD3F89030A2
:101D20009B071DD5202301934FF440630B9301A81B
:101D300000F0C2FA2046FFF79BFF78B12023019301
:101D400001A84FF480630B9300F0B6FA2046FFF72A
:101D50008FFF18B129460648FFF75AFF17B030BD6C
:101D600020230193E3E700BF008000400010024001
:101D7000FBB40008094B98420BD0A3F5744398427A
:101D800009D003F5705398420CBF02204FF0FF308A
:101D90007047002070470120704700BF00380140A5
:101DA000F0B50E4685B0044650493046154600F061
:101DB000C1FF4F490746284600F0BCFF01463846A0
:101DC00000F092FF2060013004D1382249494A488E
:101DD00001F0C8F9022E0CD00F2D0AD04349022081
:101DE00000F0A8FF874202D1444801F05FFC0027C1
:101DF00000E001272068424B984248D103F5584340
:101E00001A6C42F480421A641A6C22F480421A64FA
:101E10001A6E42F480421A661B6E03F480430193EB
:101E2000019BFFF7A7FF0028606004DABE2231495A
:101E3000344801F097F92D49304600F031FF2C4924
:101E4000284600F02DFF721C03D001213046FFF719
:101E500071F96B1C03D001212846FFF76BF94FF491
:101E60001653A3600023E36023616361236226832A
:101E700065832046FFF7FCFE3FB1234B2348012238
:101E80001A6021464C2202F071FC05B0F0BD204BD7
:101E9000984213D103F5E6339A6B42F400329A6309
:101EA0009A6B22F400329A639A6D42F400329A657A
:101EB0009B6D03F400330293029BB2E7154B9842EB
:101EC000AFD103F5C833DA6B42F00102DA63DA6BA3
:101ED00022F00102DA63DA6D42F00102DA65DB6DAD
:101EE00003F001030393039B9BE700BFB8B2000814
:101EF00088B2000825B5000881B500089DB5000826
:101F000000380140D2B50008900C0020C00F00201E
:101F10000044004000800040354B5A69D20770B53C
:101F200028D59868334E9968334D9A68334C3040C1
:101F3000B04201EA050104BF01269E60A9422C4B74
:101F400002EA040204BF4FF480759D60A24204BF00
:101F50004FF480349C60274B984205D0264B994221
:101F600002D0264B9A4205D1254B264A1B681068A1
:101F7000012198471E4CE2686369960707D09D07C8
:101F800005D51F4B1F4A1B68106800219847A1699F
:101F9000626963698C0709D5900507D5190405D5D1
:101FA000174B184A1B68106805219847104A956915
:101FB0005469526915F0040504F4806408D03CB1FA
:101FC000120405D50E4B0F4A1B681068072198476D
:101FD000074B5B6955B14CB11B0407D5084B094A47
:101FE0001B6810680221BDE87040184770BD00BF33
:101FF0000064004003000004000300080000031018
:10200000980C0020940C0020FFF786BFFFF784BFD8
:1020100008B500F06BF8FFF70EFD00F035FDBDE8E8
:10202000084000F063B8704770470000074B08494C
:102030009A68084810B5043A52F8044F41F8044F22
:102040008142F9D14FF000529A6010BD00ED00E0DE
:10205000FCFFFF1F8401002008B5FFF7E7FFFFF733
:10206000D7FFFFF7E1FF08BD08B5FFF7DCFFBDE8CC
:102070000840FEF715BA000000487047E4B50008B4
:102080004FF08043586A7047054B1B686FF002029F
:1020900058631A61DA6842F00202DA60704700BFE2
:1020A0000C100020064B1B686FF002021A615A697F
:1020B00042F002025A61DA6842F00202DA607047C6
:1020C0000C100020034B1A68D36823F00203D3607E
:1020D000704700BF0C100020FFF7F4BF024B1B68D5
:1020E0006FF002021A6170470C100020264A27493F
:1020F00013681B0754BFD2F894301368906854BF1C
:10210000C3F30323C3F3031300F00C0010B551F81D
:1021100023401F490C2835D8DFE800F0343434342C
:10212000073434341234343414001A4B0B6093687F
:10213000194AC3F30313D25C0B68D3400B6010BD84
:10214000164BF3E7D068D36800F00300C3F3021323
:10215000022803F1010304D0032811D0B4FBF3F3E8
:1021600002E00C48B0FBF3F3D468D068C0F34160E0
:10217000C4F30624013063434000B3FBF0F3D5E71A
:102180000648EFE70C60D2E70010024004B60008F2
:10219000900200200024F400ECB5000800127A0040
:1021A000F8B5444BDA6812F0030F05460E461C469C
:1021B000006839D0DA6802F0030282424BD1002A6B
:1021C00049D0DB686A68C3F302130133934242D1FA
:1021D000236823F08063236000F064FC07462368D3
:1021E0001A0141D4AF68002E45D0012E4FD122698B
:1021F000286922F4C002400822F4FE42013842EA73
:10220000072242EA40522261236843F08063236040
:1022100000F048FC064623681B0145D52369AA69DE
:10222000134323610020F8BD022810D0032814D0E6
:10223000012810D11B689F07F5D5E3686A6823F071
:102240007303013A184340EA0210E060C0E71B68DC
:1022500013F4806FF1D10120F8BD1A689103ECD41A
:102260001B6813F4802FF5E700F01CFCC01B02284C
:10227000B5D90320F8BD2269E96822F07842C90681
:1022800041EA072322F4FE4213432361BCE723699A
:10229000686923F0C063400823F4FE43013843EA31
:1022A000072343EA4063F0E700F0FCFB801B0228B1
:1022B000B1D9DEE7001002402DE9F743056815F4B7
:1022C000006504460ED0C16BB1F5000F5BD0B1F5CF
:1022D000400F5DD0002966D10430FFF761FF05464D
:1022E000002855D023689E036DD5924EB36DD8005B
:1022F0005BD4B36D43F08053B365B36D03F080538B
:102300000193019B0127DFF83082D8F8003043F4B5
:102310008073C8F8003000F0C5FB8146D8F8003063
:10232000D90544D5002D49D1D6F8903013F4407327
:1023300014D0226D934211D0D6F89030D6F8902068
:1023400042F48032C6F89020D6F8902023F44073EF
:1023500022F48032C6F89020C6F89030DA0709D50A
:1023600000F0A0FB41F288398046D6F890309B07F8
:1023700040F1C280D6F89030226D23F440731343AD
:10238000C6F890301AE06B4AD36843F48033D360C8
:10239000684AE16BD2F8883023F440030B43C2F85B
:1023A000883000259EE701259CE70027ABE700F079
:1023B00079FBA0EB09000228B0D903251FB1B36D4A
:1023C00023F08053B3652368DF0708D55949206A95
:1023D000D1F8882022F003020243C1F888209E072A
:1023E00008D55449606AD1F8882022F00C020243D3
:1023F000C1F88820980608D54E49A06AD1F88820EF
:1024000022F440620243C1F88820990508D5494961
:10241000606BD1F8882022F440220243C1F8882062
:102420005A0508D54349A06BD1F8882022F4401200
:102430000243C1F888205F0608D53E49E06AD1F81A
:10244000882022F440520243C1F88820DE0508D5D6
:102450003849206BD1F8882022F440320243C1F879
:10246000882098040FD5334A216CD2F8883023F0A5
:1024700040630B43B1F1006FC2F8883044D1D36898
:1024800043F48013D360236859030FD5294A616C44
:10249000D2F8883023F040630B43B1F1006FC2F8EB
:1024A00088303CD1D36843F48013D36023685A0446
:1024B00012D52049A26CD1F8883023F04053134341
:1024C000B2F1805FC1F8883006D10221201DFFF7EC
:1024D00067FE002818BF054623681B0408D5154A67
:1024E000E16CD2F8883023F080430B43C2F8883087
:1024F000284603B0BDE8F08300F0D4FAA0EB080052
:1025000048457FF632AF58E7B1F1806FBBD101216A
:10251000201DFFF745FE002818BF0546B3E7B1F1BF
:10252000806FC3D10121201DFFF73AFE002818BF9C
:102530000546BBE70010024000700040054BD3F891
:10254000902022F02002C3F890209A6922F40072B1
:102550009A61704700100240024A136843F0040376
:102560001360704700100240704700000268C169A4
:10257000F8B504468368006915680343606903433E
:1025800082480B432840034313605368E06823F4F8
:102590004053034353607E4BA0699A421CBF236A99
:1025A0001843936823F4306303439360794B9A4252
:1025B00014D103F55843784AD3F8883003F0030365
:1025C000B1F5004FD35C40F0AA80082B20D8DFE89B
:1025D00003F0778F921F9B1F1F1F9E006F4B9A4225
:1025E00007D103F5E6336E4AD3F8883003F00C03C5
:1025F000E6E7674B9A4240F0C28003F5C833D3F850
:10260000885005F44065B5F5806F2AD006D815B31B
:1026100001220023236663661046F8BDB5F5006FFE
:1026200006D0B5F5406FF3D14FF40040082501E026
:102630005C480225626802EB42038342E8D8B0EBB3
:10264000023FE5D8082D38D8DFE805F00F372637E8
:102650002E3737373100FEF761FB0028EAD10246FA
:10266000D7E7FDF7B5FF0425F7E7FEF757FB6268EC
:102670004FF4807156080027E1FB006700233046C5
:10268000394607F0BBFC0022474BA0F54071994248
:10269000BED82368D860BCE7444855080023002111
:1026A000401941F10001ECE7FDF792FFDFE7500828
:1026B0000021002310F50000F3E701220020E3E7EA
:1026C000FEF72CFB61684A0802EB4003B3FBF1F311
:1026D0009BB20022A3F110004FF6EF71884297D809
:1026E00023F00F012068C3F342030B43C36090E75C
:1026F000FEF724FBE6E76068430803F1F47303F593
:102700009043B3FBF0F3E3E7FDF762FFDAE76068BD
:10271000430803F58033F4E701220023DAE7082BAE
:1027200030D8DFE803F005181B2F242F2F2F2700A8
:10273000FEF7F4FA626800EB5203B3FBF2F39BB2CC
:102740000022A3F110004FF6EF7188423FF660AF10
:102750002168CB605DE7FEF7F1FAEBE760684308BC
:1027600003F5740303F51053B3FBF0F3E7E7FDF74C
:102770002FFFDFE76068430803F50043F4E7B1F596
:10278000004FC9D001220023DBE700BFF369FFEF50
:10279000008000400038014034B60008004400408A
:1027A00038B600080024F400FFFC0F00000024F4F9
:1027B000436ADA0710B506D50168846A4A6822F4CC
:1027C000003222434A609C0706D50168C46A4A6801
:1027D00022F4803222434A60590706D50168046B0F
:1027E0004A6822F4802222434A601A0706D501680B
:1027F000446B4A6822F4004222434A60DC0606D554
:102800000168846B8A6822F4805222438A609906A8
:1028100006D50168C46B8A6822F4005222438A609C
:102820005A060FD50168046C4A6822F480122243CC
:10283000B4F5801F4A6005D14A68446C22F4C00296
:1028400022434A601B0606D50268816C536823F454
:1028500000230B43536010BD2DE9F041069D044653
:102860000F46164698462168CA6937EA02030CBF2C
:1028700001220022B24202D00020BDE8F0816B1C90
:10288000F2D09DB923681A6822F4D0721A609A684F
:1028900022F001029A60202384F8713084F87230AB
:1028A000002384F870300320BDE8F08100F0FAF8CE
:1028B000A0EB08008542D6D2E4E773B504460026B3
:1028C000466700F0EFF823681B681A07054617D41F
:1028D00023681B685B070AD56FF07E4300930022D4
:1028E0002B464FF480012046FFF7B6FFA0B9202306
:1028F000002084F8713084F8700084F872300CE0A5
:102900006FF07E430093324603464FF40011204699
:10291000FFF7A2FF0028DBD0032002B070BD10B586
:10292000044660B390F8713003F0FF021BB980F8E1
:102930007020FFF719FE2268242384F87130136891
:1029400023F0010313602046FFF710FE012816D084
:10295000636A13B12046FFF72BFF23685A6822F4FD
:1029600090425A609A6822F02A029A601A6842F0ED
:10297000010220461A60BDE81040FFF79EBF01200B
:1029800010BD00000F49D1F8883043F47003C1F83E
:1029900088300D4B1A68002042F001021A609860DE
:1029A0001A6822F0A85222F410221A604FF48052C2
:1029B000DA601A6822F480221A609861034B8B60F7
:1029C000704700BF00ED00E000100240000000086A
:1029D00070B5ACB01422002101A801F0C5FF44225B
:1029E000002106A801F0C0FF5422002117A801F021
:1029F000BBFF0423069306A801230893FDF750FEAE
:102A000020B9204A136843F004031360FFF796FDD2
:102A10001323069301230C9311930623B0221293E0
:102A2000282300240E92139302220723042606A8CB
:102A3000079409940D941092149315961696FDF729
:102A40002FFE0546D8B9FFF787FD4FF400531793C3
:102A500017A84FF040632793FFF72EFC0F23019335
:102A6000314603230DEB060002930395049505956B
:102A7000FEF79EF8B0FA80F040092CB070BD2046F9
:102A8000FBE700BF0010024008B5FFF7A1FF00B947
:102A9000FEE708BD024B186800F4C060704700BF35
:102AA0000070004008B500F05DF900F043FB4FF402
:102AB0007A72002307F0A2FA08BD90F87030012B5B
:102AC0000FD00268242380F87130136843F00203AA
:102AD0001360202380F87130002380F8703018468E
:102AE00070470220704790F87030012B0FD00268B9
:102AF000242380F87130936843F40003936020230B
:102B000080F87130002380F870301846704702203A
:102B1000704790F87030012B0FD00268242380F8A2
:102B20007130136823F002031360202380F87130A2
:102B3000002380F87030184670470220704790F8E4
:102B40007030012B0FD00268242380F87130936815
:102B500023F400039360202380F87130002380F871
:102B60007030184670470220704738B504460D464D
:102B700003685AB18268136020460121FEF7C2FB48
:102B800029462046BDE83840FEF7B8BBC268F2E7E8
:102B900070B50E4604461546FEF78EFB013606D08C
:102BA0002A4620460021BDE87040FFF7DEBF70BD19
:102BB0000022FFF7EDBFC36810B504460BB19B6858
:102BC0009847204610BD38B5044648B15830A04259
:102BD00006D0A0F12C051438FFF7EDFF2846F6E7E4
:102BE000204638BD38B500250446294640F8045B28
:102BF000282201F0B9FE1022294604F1180001F044
:102C0000B3FE204638BD000010B50A4C2046FFF741
:102C1000E9FF04F12C00FFF7E5FF0023A365204640
:102C2000E365054A84F860300449BDE81040FEF7CA
:102C30008FBC00BF9C0C002088010020C72B00081F
:102C40007047A0F1BC00FFF7FBBFA0F1BC00FFF78D
:102C5000F7BF00F013BBA0F1BC00FFF7FABF00F014
:102C600010BBA0F1BC00FFF7FABF000038B5044666
:102C70001D46049B00F00CFB294604F1BC0000F04B
:102C8000CBFD064B03F10802226003F128028833D2
:102C9000C4F8BC20C4F8C030204638BD48B600088F
:102CA00013B5044601300FD102B010BD9C420AD1C9
:102CB00020468968FEF7A6F90021204602B0BDE84B
:102CC0001040FEF737BA0C31B1F900305A1CEDD183
:102CD0000023009322460249024800F007FDE3E783
:102CE00009B7000830010180884207B502460BD0C1
:102CF000431C09D001310BD000230649009306483C
:102D000000F0F4FC4FF0FF31084603B05DF804FB1F
:102D10000146F9E7D8B6000830010180B1F900306A
:102D20005A1C01D118467047834201D14868704748
:102D30000C31F3E7421C13B504460BD0FFF7EEFF4E
:102D4000431C044606D1002302460093034904486D
:102D500000F0CCFC204602B010BD00BFE9B6000870
:102D600030010180004870471CB70008024B1B6807
:102D70000BB1024818477047940200201CB70008A6
:102D800013B50D4C00F00CFA22884FF6FF739A42EF
:102D900008D100F01BFA0023228800930749084855
:102DA00000F0A4FC0121044800F01EFA02B0BDE8C6
:102DB000104000F00BBA00BF400D002040B70008E3
:102DC0002301048037B50B4D00F0EAF92C8844B993
:102DD00000F0FCF92A88009423460749074800F0D0
:102DE00085FC0121034800F009FA03B0BDE830403A
:102DF00000F0ECB9400D002065B700082401048004
:102E0000884238B504460D460AD0FDF77DFA3CB13C
:102E1000EB681BB15B68294620469847EB68E36086
:102E2000204638BD2DE9F74F90E8080404465B685A
:102E3000984763681B6A98423FD0DAF82030DAF886
:102E40000840CAF82000A0EB0308DAF80C3031483B
:102E500008EA0308844246464FF0000727D0DAE923
:102E60000A239AF839B0A8FB0089CDE90023002590
:102E7000BBF1000F2BD05A464046494606F02CFCC9
:102E8000DDE9002312EB080243EB090390465A46A2
:102E9000994606460F4606F02BFCB8EB000069EB9E
:102EA0000101A94208BFA0420AD2CAE90A01DAE92F
:102EB0000C23B6185F41CAE90C6703B0BDE8F08F78
:102EC000013647F10007001B61EB0501EDE72246E3
:102ED0002B464046494607F091F8224606460F46E3
:102EE000404649462B4607F089F8DDE9008918EB92
:102EF000020849EB0309A94508BFA04502D2CAE967
:102F00000A89D4E7013647F10007B8EB040869EBFA
:102F10000509F4E740420F00824206D98A420BD9E4
:102F2000884294BF002001207047884206D98A4217
:102F30008CBF00200120704701207047002070479F
:102F40002DE9F04707464668FFF76CFF7D68D7F824
:102F500000A06B68002B49D0D5E90C89D3E90001AA
:102F6000894508BF804504D3DAF81430BDE8F0473E
:102F70001847D5E90623B0EB080861EB09094B4572
:102F800008BF42452C6906D3AB681E4A934219D14B
:102F9000444528BF44462A6A336A1444EA68144008
:102FA000A342E1D0DAF81030204698473B685B68CE
:102FB000984722460146306AFFF7AEFF00B33B68F0
:102FC0005B69D3E795F839205AB14046494606F087
:102FD0008FFB0C4A002307F011F8844228BF0446F7
:102FE000D9E7A3FB080103FB0911F2E73369306A53
:102FF000F26818441040DAF81030BDE8F04718477E
:10300000BDE8F08740420F0003682DE9F74F054601
:103010001B6898472B689B699847066804462EB939
:1030200029222E492E482F4E00F09CF81F23012202
:1030300002FA03F1B1425FFA83FB02D0013BF7D100
:103040009B46D4F804A0AAF104031C2B06D937220E
:103050002249234800F086F84FF0200AAAF1040321
:10306000072716F1FF3007FA03F71E4C4FF0000355
:1030700043F1FF313246C4FB070106F0BFFF6C6825
:103080000023236063602B685B68CDE900019847EB
:1030900020626C684FF000084FF000095246C4E906
:1030A0000A89A66084F839B00120002106F020FBCF
:1030B000DDE900230138C4E906230123E06027612C
:1030C0002846C4E90C8984F83830FFF7ABFE28465F
:1030D00003B0BDE8F04FFFF733BF00BF83B7000870
:1030E0005FB9000840420F0070B5044600F058F880
:1030F0002368DB68984763685B68A3B12046FFF7E5
:1031000091FE65686E68D5E90C01D6E90023994205
:1031100008BF904207D3F3686B602B68002BEAD09E
:10312000B0689847E7E72046FFF70AFFBDE8704020
:1031300000F04CB8436893F8383010B504460BB92A
:10314000FFF762FF00F02CF82046FFF76BFE00F05F
:103150003DF86368D3E90C0110BD08B5FFF7EAFF3D
:1031600008BD000070B504460D46164600F018F87C
:1031700033462A4621460348FEF7BCFCBDE87040B2
:10318000FEF764BCD5B70008EFF31080C04300F031
:1031900001007047EFF30580003018BF0120704731
:1031A00010B5074C2368013304D155220549064860
:1031B000FFF7D8FF00F06EFB23680133236010BDDA
:1031C000440D002006B800085BB80008054B1A68DB
:1031D00032B11A68013A1A601B680BB900F06CBB77
:1031E000704700BF440D0020D0E85F3F0B449BB206
:1031F000C0E8523F002AF7D118467047D0E85F3F39
:103200005B1A9BB2C0E8523F002AF7D118467047BC
:103210007047704710B480B1146853680CB9DA076E
:103220000BD513F0010F4FEA63031CBFC2581459AA
:10323000184423465DF8044B18475DF8044B70476B
:10324000090170B501F198050544EB6883B1441894
:10325000D4F8A4302BB94FF4047206490648FFF79E
:1032600081FFD4F8A43028461B68BDE87040184799
:1032700070BD00BF8CB80008E7B800084C30FDF7FF
:1032800059BE10B54C300C46FDF76AFE204610BD05
:103290002DE9F04F87B00025924600950246019532
:1032A000044689469B469DE80300324B42F8083BA2
:1032B000314B82E80300236148F2070363612F4B1F
:1032C000E561A46122626362BFF36F8FBFF34F8F2A
:1032D000102284F8285084F8295004F12C0001F0C1
:1032E00043FB04F14C062946102204F13C0001F096
:1032F0003BFB04F1980829464C22304601F034FB90
:1033000004F1A80729461022404601F02DFB29466A
:103310001022384601F028FB10222946C4F8B8B024
:1033200002A801F021FB02A94046FFF769FD02A8AF
:10333000FCF7EAFF1022294602A801F015FB02A9BA
:103340003846FFF75DFD02A8FCF7DEFF524649460E
:103350003046FEF725FDD4F8B8103046FEF7CCFC19
:10336000304622460649FDF787FD204607B0BDE8F6
:10337000F08F00BFF4B8000801A090E815320008F3
:10338000413200082DE9FF410646884656F84C3B7D
:1033900017461B6805463C019847FFF701FFD8F820
:1033A0000C3098342C44ABB1E3680BB9FFF7E8FC60
:1033B00041462046FFF724FD012239463046FDF7FD
:1033C00067FDFFF703FF2B6828465B68984704B04A
:1033D000BDE8F081E3680BB1FFF7F4FC1022002197
:1033E000684601F0C1FA69462046FFF709FD6846C4
:1033F000FCF78AFF0022E0E77FB51A4B0360044622
:1034000010220021684601F0AFFA002269462046EA
:10341000FFF7B8FF6846FCF777FF102200216846E7
:1034200001F0A2FA012269462046FFF7ABFF684689
:10343000FCF76AFF14F1980608D004F1B805B5420C
:1034400004D0103D2846FCF75FFFF8E704F13C008C
:10345000FFF7B1FB04F12C00FFF7ADFB204604B0F1
:1034600070BD00BFF4B8000810B50446FFF7C4FFF4
:103470002046FEF7D8F9204610BD000070B50E4674
:1034800000250446056045600F49304601F030FED6
:103490000644266023681A782F2A0ED10133236050
:1034A00025B9282209490A48FFF75CFE294630461B
:1034B00000F06CFA6060204670BD002AF0D0013345
:1034C00001352360E6E700BF04B9000806B900082B
:1034D00058B9000800687047406808B520B100F08E
:1034E00005FA431E5842584108BD10B50446FFF77F
:1034F000F3FF10B1606800B1043810BD406808B532
:1035000020B100F0F3F9B0FA80F0400908BD10B521
:103510000446FFF7F3FF10B1606800B1043810BD36
:103520004068003018BF0120704700002DE9F041CD
:103530001C4C1D4E237836EA200628BF0646012B78
:1035400088B0F0460F4600D1FEE7184DFFF728FE81
:1035500001232370FFF73AFE2B680022013320215C
:1035600068462B6001F000FA2B680297012B8DE86A
:10357000400104D1202269460D4801F0F7F82022CD
:1035800069460C4801F0F2F8684600F01FFA0A4B51
:103590001B680BB1074898470020207008B0BDE8B1
:1035A000F08100BF500D00200101FF80480D002078
:1035B000540D0020740D00204C0D00207FB52D4CC3
:1035C0002168C1F34173032B0CBF4D428DB2C1F38F
:1035D00007432A4606462848FEF78CFA6FF49E7287
:1035E000AB18032B0CD83046FEF784FAA1682348A9
:1035F000FEF780FA224804B0BDE87040FEF77ABAC0
:103600006FF498731D44072D09D8DFE805F0041DF9
:103610002023262C292FA1681A48FEF76BFA304682
:103620000021FEF767FA61681748FEF763FAE3695D
:103630000293A36901936369009304F108010EC921
:103640001248FEF757FAD5E7A1681148E5E7A168E7
:103650001048E2E7A1681048DFE7A1680F48DCE7FF
:10366000A1680F48D9E7A1680E48D6E7A1680E48BF
:10367000D3E700BF740D002076B90008C7B9000871
:10368000D6BA0008D8B9000865BA000875BA0008AB
:10369000EDB90008FCB900080ABA00081CBA000815
:1036A0002FBA000842BA000850BA00080FB437B564
:1036B0000B4D297879B90B48FFF738FF0A48FFF717
:1036C0007DFF012407A906982C700191FEF7E8F907
:1036D0002046FDF73FFF03B0BDE8304004B070471F
:1036E000500D00200001FF8061B9000810B50C46A4
:1036F0001146FFF71BFF68B92046FFF75FFFFFF792
:1037000049FD10B9FFF740FD08B930BFFDE70120C2
:10371000FDF720FF004810BD0F01FF8070B5044683
:10372000FFF720FB0646FFF718FD05463046FFF77A
:1037300014FD401BA042F9D370BD000007EE100A33
:10374000DFED047A67EE277AFDEEE77A17EE900A4E
:10375000FFF7E4BF002474494FF47A735843FFF72E
:10376000DDBF0020704770477047F8B503681B6DD8
:103770000E4604468F1898473546BD4207D0236849
:1037800015F8011B9B6C204698470130F5D1236842
:1037900020465B6D9847A81BF8BDF8B503681B6D04
:1037A0000E4604468F1898473546BD4208D0236818
:1037B0002046DB6C9847431C02D005F8010BF4E768
:1037C000236820465B6D9847A81BF8BD0020704712
:1037D00070470020704700207047000010B5054B6F
:1037E00003605033044640F8043F00F09FF8204641
:1037F00010BD00BFF8BA0008A0F10400EEE700BF5A
:1038000010B50446FFF7EAFF2046FEF70CF8204605
:1038100010BDA0F10400F3E7104B13B500220446DD
:1038200040F8043B00F064F80D4B236060336360A4
:10383000002363610B492046FEF758F80346606198
:1038400020B1FDF78CFE204602B010BD009002466C
:1038500005490648FFF74AFFF5E700BF68BC0008C6
:1038600070BB000850BB000853BB00081901018061
:1038700010B5074B03F10802683304460260436049
:10388000406900F029F92046FFF7A8FF204610BD47
:1038900068BB0008EFF31083DB4372B6044A11786B
:1038A00029B9044903F001030B7001231370704719
:1038B000950D0020940D002008B5EFF31083DB0771
:1038C00004D4362205490648FFF74CFC054B00227C
:1038D0001A70054B1B7803B162B608BDD8BB00084F
:1038E00034BC0008950D0020940D0020007B70472B
:1038F00038B504460A4B0360002343600D46A160BF
:1039000002730848FDF792FF45B1074B1A686260E1
:103910001C600448FDF78AFF204638BD6560F8E763
:1039200058BC00089C0D0020980D002010B50F4BCE
:10393000036004460E48FDF779FFA3682BB10D4ADA
:1039400013689C420CD1636813600948FDF76EFF51
:10395000237B13B9201FFDF77FFF204610BD1346C0
:103960005A689442FBD162685A60EEE758BC00087E
:103970009C0D0020980D002010B50446FFF7D6FFDF
:103980002046FDF750FF204610BD000070B50646EA
:103990000C480D46FDF74AFF0B4B1C685CB1A06854
:1039A00070B12A46314601F057FB48B9A06801F0D2
:1039B00025FB854204D10348FDF738FF204670BD42
:1039C0006468EBE79C0D0020980D002010B50446BC
:1039D000B8B1FFF7E5FB0C4A0C48136801331360DC
:1039E0005A4202F0030203F0030358BF5342214638
:1039F000202200EB431000F0B9FEFFF7E7FB0020A8
:103A000010BD034810BD00BF98020020A40D002087
:103A10000101FF80036870B51B6901220021044683
:103A20009847051E0DDB236802221B6900212046F2
:103A300098472368064629461B6900222046984776
:103A40003546284670BD0000014B1868704700BF1E
:103A5000C806002000293DD070B505460C4608B1C7
:103A6000836B7BB3B4F90C300BB9002070BD2846D2
:103A7000214600F039F8E36A064633B12846E16989
:103A800098470028B8BF4FF0FF36A3891B061CD407
:103A9000216B41B104F14003994202D0284606F05F
:103AA0007FFD00232363616C21B1284606F078FD79
:103AB0000023636400F0CAF90023A38100F0C8F971
:103AC000304670BD00F0BCF9CCE72846216906F00D
:103AD00067FDDDE700207047024B01461868FFF7DD
:103AE000B9BF00BFC80600208B899AB22DE9F0410A
:103AF0000D46110780463CD46A6843F40063002AEF
:103B0000AB8165DDAE6A002E4BD09BB203F48052D0
:103B1000002192B2D8F80040C8F80010002A5BD00B
:103B20002A6D5F0705D569682B6B521A0BB1EB6BD9
:103B3000D21A4046E9690023B047461C56D0AB89EB
:103B40002A692A6023F400639BB200226A60DA04C7
:103B5000AB813BD4296BC8F8004011B305F1400399
:103B6000994202D0404606F01BFD00202863BDE8C4
:103B7000F0812E69AEB12C682E6091070CBF6B6985
:103B80000023A41BAB600AE0324623466F6AE96952
:103B90004046B8470028A4EB0004064404DD002C8E
:103BA000F2DC0020BDE8F081AB8943F04003AB813B
:103BB0004FF0FF30BDE8F081AB892A69696023F4DA
:103BC00000639BB2AB81DB042A60C3D52865C1E7E3
:103BD000EA6B002A96DCE4E701234046E969B04736
:103BE000431C024619D0AB89AE6A9AE7D8F8001098
:103BF0000029E1D01D2907D0162905D0AB8943F053
:103C00004003AB81BDE8F081AB892A692A6023F4C7
:103C100000630022AB816A609CE7D8F80030002B7B
:103C2000E1D01D2B07D0162B05D0AB8943F0400304
:103C3000AB81BDE8F081C8F80040B2E710B504469A
:103C400082B008B1836B53B1B1F90C0008B902B06E
:103C500010BD204602B0BDE81040FFF745BF0191FE
:103C600000F0EEF80199EFE720B1054B0146186826
:103C7000FFF7E4BF034B0449186800F05BBC00BFCA
:103C8000C8060020B4BC00083D3C0008014900F013
:103C900051BC00BF553A00082DE9F04F354B45683F
:103CA000C3630024074600F53B7204230321C0F8D8
:103CB000E412C0F8E822C0F8E04283B02C606C60E7
:103CC000AC606C66EC812C616C61AC61AB812146AF
:103CD00005F15C00082200F047FEBE68DFF898B0EE
:103CE000DFF898A0DFF89890DFF89880C5F820B04A
:103CF00001230922C5F824A0C5F82890C5F82C8016
:103D0000ED612146F381B28106F15C00346074609C
:103D1000B460746634617461B4610822019300F088
:103D200023FEFD68F66112200222C6F820B0C6F814
:103D300024A0C6F82890C6F82C802146A881EA81E4
:103D40002C606C60AC606C662C616C61AC6105F1E0
:103D50005C00082200F008FE019BED61C5F820B070
:103D6000C5F824A0C5F82890C5F82C80BB6303B023
:103D7000BDE8F08F8D3C0008814C0008A54C000880
:103D8000DD4C0008FD4C000870B568234D1E03FB98
:103D900005F50E4605F1740106F0FEFB044640B140
:103DA00000210C30666005F168022160A06000F01F
:103DB000DBFD204670BD00BF204B70B51D68AB6BAE
:103DC000064613B92846FFF767FF05F538756B6897
:103DD000AC68013B05D521E0013B5A1C04F16804A5
:103DE0001CD0B4F90C20002AF6D1002501234FF68F
:103DF000FF72E281A38165662560A560656025612B
:103E00006561A561294604F15C00082200F0ACFD63
:103E1000256365636564A564204670BD2B680BB19E
:103E20001D46D4E730460421FFF7AEFF286008B1F5
:103E30000546CCE70C23336070BD00BFB4BC00085E
:103E4000836B03B17047FFF727BF00BF704700BF08
:103E5000704700BFF0B583B00F46114601AA064671
:103E600003F0C2FC0546E8B13046FFF7A5FF044663
:103E7000C0B139463046019A4FF4DB7300F0C2FD01
:103E800000281BDB114B124F1249134AE362EB056A
:103E9000E081A581E46127626162A26205D42046C7
:103EA00003B0F0BD002003B0F0BD30462146002233
:103EB000022300F01BF8204603B0F0BD0025FFF7F9
:103EC000C5FFA581FFF7C4FF2846E9E7FD4C0008C0
:103ED000814C0008A54C0008DD4C0008024B0A4646
:103EE00001461868FFF7B6BFC806002000F000B80A
:103EF0002DE9F04F0C4691B091461E46054610B193
:103F0000836B002B73D0A38903F48473B3F5847F90
:103F100075D0D4F82880B8F1000F00F03E81012E52
:103F20004AD0022E08D03EB116232B604FF0FF3747
:103F3000384611B0BDE8F08F4FF0000A23695746AC
:103F4000002B00F01581A28940F61A0391B20B40B4
:103F500043B949055ED4934B984500F0F68042F48E
:103F60000062A28128462146FFF768FE0746002826
:103F7000DCD14A4633462846E169C0470130D5D0F6
:103F8000216B41B104F14003994202D0284606F06A
:103F900007FB00232363A3892269226023F40263C1
:103FA0000021A381616004F15C00082200F0DCFCC8
:103FB000384611B0BDE8F08F28462146FFF73EFE97
:103FC000A38903F4805292B2002A00F0B480276DD6
:103FD0005E075CD4180740F1AC80226823690AB1FF
:103FE000D21A1744B9444FF0010A0026A8E7FFF798
:103FF00027FFA38903F48473B3F5847F89D128460E
:104000002146FFF71BFE84E7A3894FF48062134328
:10401000A381E264002E43D1CB46BAF1000F4ED10A
:10402000A389DA0440F1A980206D6368216BC71A67
:10403000002900F0AB80E26BBF1A1F442069A36B1C
:104040001B1AFF1A1344BB453FDBFA1893453CD2B9
:10405000C7EB0B073844DB1B84E8090041B104F1CE
:104060004003994202D0284606F09AFA00232363BF
:10407000A38923F02003A38104F15C00002108221E
:1040800000F072FC0027384611B0BDE8F08F62687E
:10409000236BBF1A002B4CD0E26B2369BF1AA1E738
:1040A0002846B4F90E1001AA00F07EF800287FF42B
:1040B00059AF059B09EB030BBAF1000FB0D0216B90
:1040C0006368002962D0E26BB7E7E76CE1697F4281
:1040D0000BEA07073A4628460023C04701303FF461
:1040E00041AF2369216B23600023636041B104F178
:1040F0004003994202D0284606F052FA0023236377
:10410000A389BBEB070B23F02003A381B4D028467F
:10411000214600F0A9FC00287FF424AF6268934593
:104120003FF620AF2368CBEB02025B446260236062
:10413000A2E7236956E733462846E169C047431C96
:1041400007463FF4F3AEA38942E7B4F90E10002905
:10415000FFF605AF284601AA00F026F830B9029B09
:1041600003F47043B3F5004F3FF44EAFA289F6E677
:104170002846214600F030FAE5E60123524628465B
:10418000E169C047431C7FF450AFEBE62268206929
:10419000121ABF1A1344002155E71D232B604FF05C
:1041A000FF37C5E6DD4C000838B5084C002305464E
:1041B000084611462360FDF734FB431C00D038BD90
:1041C0002368002BFBD02B6038BD00BF4C100020B3
:1041D0009368002B7AD02DE9F04FB1F80CE01EF077
:1041E000080F83B00C468146164626D00B6923B3D0
:1041F0000EF002081FFA88F0356870B34FF0000A1D
:10420000DFF8E0B2D046D8454346524628BF5B4669
:104210004846B8F1000F53D0E169676AB8470028F3
:1042200073DDB3681B1A8244C0EB0808B360002B2F
:10423000E9D1002003B0BDE8F08F4846214602F0E6
:1042400081FA002840F04581B4F80CE035680EF0A2
:1042500002081FFA88F00028D0D11EF0010B5DD1B2
:10426000D846B8F1000F25D01EF4007FA7682FD0E4
:10427000B845BA46C0F0A9801EF4906F40F0B680F1
:1042800020685246594600F00BFBA0682268C01B0C
:1042900002EB0A03A06023604046B3681B1A834404
:1042A000C0EB0808B360002BC3D0B4F80CE0B8F141
:1042B000000FD9D1D5F800B0D5F804800835D0E783
:1042C000D5F800A0D5F8048008359CE70020704799
:1042D00020682369984203D86269904580F0B980CC
:1042E000474528BF47463A46594600F0D9FAA368E1
:1042F0002268DB1B3A44A3602260002B4AD1484667
:104300002146FFF79BFC002844D0A38943F04003DB
:104310004FF0FF30A38103B0BDE8F08F80460090DE
:1043200083468246BAF1000F2CD0009B002B50D060
:1043300020682169D4F808E06269D045434628BF67
:10434000534688421F4604D90EEB020C634500F326
:104350009280934220DB1346676AE16948465A46D9
:10436000B847071ED1DDB8EB070825D0B368DB1BC3
:10437000BB44C7EB0A0AB360002B3FF45AAFBAF153
:10438000000FD2D10023D5F800B0D5F804A00093D7
:104390000835C7E7384680E71A465946019300F0CA
:1043A0007FFAA2682168019BB8EB0708A2EB030221
:1043B0000B44A2602360D9D148462146FFF73EFC5A
:1043C0000028A2D1CDF80080D0E720684746C24639
:1043D00057E758460A21524600F07EF9002873D06C
:1043E00001300123CBEB00080093A1E76769216945
:1043F000236807EB47075B1A07EBD777581C7F103A
:10440000404487423A463CBF07463A461EF4806F16
:10441000009346D01146484606F0BEF8009B8246FF
:10442000002859D01A462169009300F09FF9A2890B
:10443000009B22F4906242F08002A2810AEB03000A
:10444000FB1AC4F810A067612060A3604746C2460B
:1044500017E76FF00043434528BF4346676A93FB65
:10446000F2F3484603FB02F3E1695A46B8470028D5
:104470003FF713AF49E762465946CDF804C000F054
:104480000FFA2368DDF804C06344236048462146E0
:10449000FFF7D4FBDDF804C000287FF436AF674691
:1044A00061E7484606F07AF8009B82460028C5D1AD
:1044B0004846216906F074F8A3890C2223F0800392
:1044C0009BB2C9F8002021E701230AF101080093FB
:1044D0002EE74FF0FF30ADE60C23C9F80030A3897A
:1044E00014E700BF00FCFF7F2DE9F04110F538779D
:1044F0001BD0884600267D68BC68013D0FD4A38987
:10450000012B05F1FF3506D9B4F90E3001332046F1
:1045100001D0C04706436B1C04F16804EFD13F682B
:10452000002FE8D13046BDE8F0813E463046BDE878
:10453000F08100BF2DE9F84310F538771FD0884689
:1045400006464FF000097D68BC68013D11D4A3897F
:10455000012B05F1FF3508D9B4F90E30013321469E
:10456000304602D0C04749EA00096B1C04F16804D8
:10457000EDD13F68002FE6D14846BDE8F883B94643
:104580004846BDE8F88300BF70B50F4E0F4D761B4F
:10459000B61018BF002405D0013455F8043B9847E5
:1045A000A642F9D10A4E0B4D761B06F0EDFDB61072
:1045B00018BF002406D0013455F8043B9847A642A2
:1045C000F9D170BD70BD00BF3C0B00203C0B00203A
:1045D0004C0B00203C0B00208B899AB212F0020F8A
:1045E0003CD1F0B50C46B1F90E10002991B005464A
:1045F00019DB01AAFFF7D8FD002812DB029B03F4A8
:104600007043B3F5004FA3F50057B7FA87F74FEAA9
:1046100057172AD0A38943F40063A3814FF480661F
:104620000BE0A3899AB212F0800F43F40063A381D8
:104630000CBF4FF48066402600272846314605F01F
:10464000ABFFA38940B31A4AEA6343F08003A38116
:104650002060206166619FB911B0F0BD01F1430394
:1046600001220B600B614A617047124BA26A9A42A9
:10467000D0D1A3894FF480663343A381E664DCE79D
:104680002846B4F90E1003F0E9F80028E4D0A38915
:1046900043F00103A381DFE79A05DDD404F143026F
:1046A00043F002030121A381226022616161D3E70B
:1046B0008D3C0008DD4C0008024B0146186805F0EF
:1046C0006BBF00BFC8060020024B0146186805F00A
:1046D00067BF00BFC8060020830770B4C9B240D0CE
:1046E000541E002A3FD003788B4218BF431C06D1CA
:1046F0001DE0F4B102788A4204F1FF3417D013F0C0
:10470000030F184603F10103F3D1032C14D884B12D
:1047100003788B420BD00519431C02E002788A42D1
:1047200005D0AB42184603F10103F7D1002070BC5D
:104730007047204670BC704741EA0126024646EAAF
:1047400006461046043203687340A3F1013525EA9A
:10475000030313F0803FDAD1043C032C1046F0D859
:10476000D5E71446D1E71046E1E700BF844641EAA9
:10477000000313F003036DD1403A41D351F8043BD9
:1047800040F8043B51F8043B40F8043B51F8043B2B
:1047900040F8043B51F8043B40F8043B51F8043B1B
:1047A00040F8043B51F8043B40F8043B51F8043B0B
:1047B00040F8043B51F8043B40F8043B51F8043BFB
:1047C00040F8043B51F8043B40F8043B51F8043BEB
:1047D00040F8043B51F8043B40F8043B51F8043BDB
:1047E00040F8043B51F8043B40F8043B51F8043BCB
:1047F00040F8043B51F8043B40F8043B403ABDD23A
:10480000303211D351F8043B40F8043B51F8043BDB
:1048100040F8043B51F8043B40F8043B51F8043B9A
:1048200040F8043B103AEDD20C3205D351F8043B6A
:1048300040F8043B043AF9D2043208D0D2071CBF36
:1048400011F8013B00F8013B01D30B88038060465F
:10485000704700BF082A13D38B078DD010F00303D5
:104860008AD0C3F10403D21ADB071CBF11F8013B45
:1048700000F8013B80D331F8023B20F8023B7BE794
:10488000043AD9D3013A11F8013B00F8013BF9D2BF
:104890000B7803704B7843708B7883706046704759
:1048A0008842F0B50DD98B1898420AD28118002A97
:1048B00054D09A1A13F8014D01F8014D9342F9D1E1
:1048C000F0BD0F2A48D940EA01039B0747D100F108
:1048D000100401F11003154653F8106C44F8106CE5
:1048E00053F80C6C44F80C6C53F8086C44F8086CE2
:1048F000103D53F8046C44F8046C0F2D03F11003C1
:1049000004F11004E8D8A2F1100323F00F0302F021
:104910000F0E1033BEF1030F1944034421D91E1F9B
:104920000D467446043C55F8047B46F8047F032C7E
:10493000F8D8AEF1040424F00304043423442144E1
:1049400002F0030252B1013B0A4411F8014B03F893
:10495000014F9142F9D1F0BD0346F3E7F0BD0346A4
:10496000F1E77246EEE700BF70B4840746D0541EEC
:10497000002A41D0CDB2034602E0621EE4B31446E1
:1049800003F8015B9A07F8D1032C2ED9CDB245EA82
:1049900005250F2C45EA054519D903F110022646D5
:1049A000103E0F2E42F8105C42F80C5C42F8085C96
:1049B00042F8045C02F11002F2D8A4F1100222F0D5
:1049C0000F0204F00F041032032C13440DD91E46BD
:1049D0002246043A032A46F8045BFAD8221F22F042
:1049E00003020432134404F003042CB1C9B21C4482
:1049F00003F8011BA342FBD170BC70471446034669
:104A0000C2E700BF70B5084C0646002508461146AF
:104A10001A462560FCF7D4FF431C00D070BD236804
:104A2000002BFBD0336070BD4C1000200FB400B5DC
:104A3000074983B004AB086853F8042B81680193DD
:104A400000F072FB03B05DF804EB04B0704700BFE8
:104A5000C8060020838903F00903092B01D0002038
:104A60007047FFF701B900BFF8B50C46054610B115
:104A7000836B002B43D0A3899AB2970407D4626E4C
:104A800043F4005322F400526266A3819AB20021DB
:104A90009606616030D4500721D5216B61B104F1D5
:104AA0004003994202D0284605F07AFDE36B63602B
:104AB00000202063002B3ED12369002B4BD0A78917
:104AC000BEB2B3071ED1226922602846E169256A79
:104AD0006369A8470028606009DD0020F8BDD106A1
:104AE0003ED512072AD443F00403A381E4E7A38947
:104AF00019D143F02003A3814FF0FF30F8BDFFF739
:104B00009FF9B8E71A4B1B4918680123A38106F0E7
:104B10000906FFF7E9FC092EA781D4D128462146D2
:104B2000FEF7E2FFCFE7002243F04003A38162607B
:104B30004FF0FF30F8BDA36B2360F8BD2846214637
:104B4000FFF77CF80028D7D1A389A06023F00803E1
:104B5000A0619BB2C7E728462146FFF73DFDAEE7BF
:104B600043F0400309222A604FF0FF30A381F8BDD3
:104B7000B4BC0008554A000800290CBF02220022DC
:104B80004FF4806300F000B82DE9F0413A4C2668FC
:104B90000D46044690461F4616B1B36B002B3CD021
:104BA000B8F1020F2FD8002F2DDB21463046FFF73A
:104BB00045F8A18900236360A3610B0627D421F087
:104BC000830189B2B8F1020FA1812AD0002D36D01D
:104BD000B8F1010F11D089B201F00800274BF3633F
:104BE00080B225602561676178B111F0030F18BFAD
:104BF0000027A7600020BDE8F08141F001017B4261
:104C0000A181A361E7E74FF0FF30BDE8F0812169A2
:104C1000304605F0C5FCA189D1E73046FFF710F911
:104C2000BEE7002004F1430341F002010025012208
:104C3000A181A560236023616261BDE8F081002F3E
:104C400008BF4FF480673846FFF736FD054628B1A8
:104C5000A18941F0800189B2A181B9E74FF4806058
:104C6000FFF72AFD054618B9A1894FF0FF30D9E7B3
:104C70004FF48067ECE700BFC80600208D3C0008B9
:104C800010B50C46B1F90E1003F010F9002803DB43
:104C9000236D0344236510BDA38923F48053A381AE
:104CA00010BD00BF2DE9F04116468A891D46D30587
:104CB0000C46074606D50022B1F90E10022302F079
:104CC000EDFDA289B4F90E1022F48052A28138467B
:104CD00032462B46BDE8F04101F020BD10B50C4630
:104CE000B1F90E1002F0DAFDA389421C0EBF23F4C5
:104CF000805343F480532065A38110BDB1F90E1099
:104D000001F082BD00000000000000000000000073
:104D10000000000000000000000000000000000093
:104D2000A2EB0300704700BF02780B78012A28BF6E
:104D30009A42F5D16DE9044540EA0104CDE90267E4
:104D40006FF0000C4FEA447212B380EA010414F0D1
:104D5000070F6AD100F0070420F0070004F00305F4
:104D600021F007014FEAC505F0E8042314F0040F11
:104D7000F1E804670CFA05F462EA040266EA040644
:104D80000AD063EA0403624667EA0407664603E062
:104D9000F0E80423F1E8046782FA4CF582EA06049D
:104DA000A4FA8CF46CBB83FA4CF583EA0705A5FAE8
:104DB0008CF595B950E9022351E9026782FA4CF566
:104DC00082EA0604A4FA8CF483FA4CF583EA070518
:104DD000A5FA8CF52543DBD09CB92DBAB5FA85F43C
:104DE00024F0070427FA04F1DDE9026723FA04F34B
:104DF00003F0FF0001F0FF01FDE80445A0EB010016
:104E0000704724BAB4FA84F424F0070426FA04F1B3
:104E1000DDE9026722FA04F202F0FF0001F0FF016F
:104E2000FDE80445A0EB0100704714F0030F3CD1EE
:104E300010F0030428D150F8082B51F8083B82FAEF
:104E40004CF582EA0305A5FA8CF55DB950F8042CFF
:104E500051F8043C82FA4CF582EA0305A5FA8CF578
:104E6000002DE8D02DBAB5FA85F424F0070423FA12
:104E700004F122FA04F202F0FF0001F0FF01FDE864
:104E80000445A0EB010070474FEAC40420F0030082
:104E900050F8082B21F0030151F8083B0CFA04F4F8
:104EA00062EA040263EA0403C9E710F003041AD0BB
:104EB000A1EB040120F00300E40750F8042B06D016
:104EC0000FD28B785FFAA2F4E41A06D12BB1CB781B
:104ED0005FFAB2F4E41A00D11BB920465DF8104B1A
:104EE000704701F1040150F8042BCC0721F00301B5
:104EF00051F8043B48D824D222F07F4482FA4CF582
:104F000094EA1325A5FA8CF50AD165B951F8043B4A
:104F100084EA0204B4EB036F0ED150F8042BEBE7E4
:104F20004FEA132355E035F07F454DD10878FDE871
:104F30000445C0F1000070474FEA126203F0FF031E
:104F400047E002EA1C4482FA4CF594EA1345A5FABC
:104F50008CF50AD165B951F8043B84EA0204B4EB3C
:104F6000034F0CD150F8042BEBE74FEA134330E02A
:104F700015EA1C4528D10B884FEA124229E04FEA76
:104F8000124203EA1C4324E002F0FF0482FA4CF5CB
:104F900094EA1365A5FA8CF50AD165B951F8043B7A
:104FA00084EA0204B4EB032F09D150F8042BEBE799
:104FB0004FEA13630DE015F0FF0F05D10B684FEAC0
:104FC000122223F07F4304E04FF00000FDE8044587
:104FD000704712BA1BBA82FA4CF482EA0304A4FAAC
:104FE0008CF5B5FA85F402FA04F203FA04F34FEAF9
:104FF0001260FDE80445A0EB1360704720F0030148
:1050000010F00300C0F1000051F8043B00F1040C63
:105010004FEACC0C6FF000021CBF22FA0CF21343D3
:105020004FF0010C4CEA0C2C4CEA0C4CA3EB0C029C
:1050300022EA030212EACC1204BF51F8043B043006
:10504000F4D0C2F1000102EA0102B2FA82F2C2F126
:105050001F0200EBD2007047002A3ED040EA010355
:1050600013F00303F0B425D1032A23D904680D6893
:10507000AC421FD1043A32D0A4F1013525EA040430
:1050800014F0803F2ED1071D0D1D0DE057F8043B95
:105090000E68A3F10134B34224EA03040AD1043AAE
:1050A0001DD014F0803F20D1032A2946384605F14F
:1050B0000405EBD803780C78A34202F1FF3209D142
:1050C0006AB17BB110F8013F11F8014FA34202F120
:1050D000FF32F5D0181BF0BC7047104670471046E1
:1050E000F0BC70471846F0BC70470020F3E700BFE3
:1050F00070B40478A4B10E7805464EB1B4420AD01B
:105100000A4601E09C4206D012F8013F002BF9D17B
:10511000281A70BC704715F8014F002CEDD1F7E745
:105120002046F6E7000000002DE9F04FC1B01C4614
:1051300089460892074602F0ADFB036815931846AE
:10514000FFF75CFF0C9416901FB1BB6B002B00F0B7
:10515000F380B9F80C2093B29E040AD4D9F86410F5
:1051600042F4005321F40051A9F80C30C9F864103E
:105170009BB21D0740F1AA80D9F81020002A00F048
:10518000A58003F01A030A2B00F0AC809FED6E7B24
:1051900000238DED127B1193259324931493179381
:1051A000099330AB23931C46B846089D2B78002BFF
:1051B00000F0C680252B02D1C2E0252B03D015F8C4
:1051C000013F002BF9D1089BEE1A7EB1249B259A52
:1051D0000899216001333244072B6660259224939D
:1051E00000F393800834099B334409932B78002BF8
:1051F00000F093800023691C4FF0FF3A6D788DF822
:105200006F301A460A93069356464B1CA5F12001AF
:10521000582900F2CD83DFE811F05C02CB03CB0309
:105220000203CB03CB03CB03CB03CB03CB03090399
:10523000D202CB03F8015303CB03D602DD02DD0219
:10524000DD02DD02DD02DD02DD02DD02DD02CB0377
:10525000CB03CB03CB03CB03CB03CB03CB03CB03DE
:10526000CB0371029302CB039302CB03CB03CB039B
:10527000CB03CB02CB03CB036E03CB03CB03CB031C
:10528000CB03CB03B503CB03CB038B03CB03CB0304
:10529000CB03CB03CB03CB03CB03CB03CB03CB039E
:1052A000A003170393029302930230031703CB0367
:1052B000CB033703CB034103FF01EC026302CB03B3
:1052C0001102CB039B00CB03CB0336023846494681
:1052D00001F038FAA0B9B9F80C3003F01A030A2B20
:1052E0007FF454AFB9F90E30002BFFF64FAF3846BC
:1052F0004946089A234601F037F941B0BDE8F08FDE
:105300004FF0FF3041B0BDE8F08F4046494623AA38
:1053100004F0B2F840B930AC65E7259B23B14046B4
:10532000494623AA04F0A8F8B9F80C305A06E7D485
:10533000099841B0BDE8F08F3846FEF781FD08E7D7
:10534000089D53E7AFF3008000000000000000005C
:105350000893069BB2469E0640F11E830C9F0737BA
:1053600027F0070303F10802D3E900670C92012339
:105370004FF0000C8DF86FC0CDF83CA0BAF1000FD3
:1053800003DB069A22F08002069256EA070240F0FA
:105390001F83BAF1000F00F01C84012B00F0208362
:1053A000022B00F0528430A9F20842EA4772F80852
:1053B00006F0070307461646303356EA070201F89F
:1053C000013DF1D1069A0E91D00700F1F98430AB7E
:1053D0005B1A0B930B9A92455346B8BF134607933B
:1053E00000231093BCF1000F02D0079B01330793F9
:1053F000069B13F002030D9302D0079B0233079321
:10540000069B13F0840640F0E0820A9B079AC2EBE9
:10541000030ABAF1000F40F3D882BAF1100F2599B0
:10542000249AB34FC8BF4FF0100B07DC1EE0AAF15F
:10543000100ABAF1100F04F1080417DD013210311F
:10544000072A2591249284E88008F0DD40464946E9
:1054500023AA04F011F800287FF466AFAAF1100A1D
:10546000BAF1100F2599249A30ACE7DC01320AEB2F
:10547000010B072ACDF894B0249284E8800400F34D
:105480004A849DF86FC00834BCF1000F0FD0249BF4
:1054900001330BF1010B0DF16F010122072BCDF848
:1054A00094B0249384E8060000F3B18308340D9B84
:1054B00073B1249B01330BF1020B1CA90222072BB1
:1054C000CDF894B0249384E8060000F3AC8308344C
:1054D000802E00F0F0820F9B0B9AC2EB030ABAF108
:1054E000000F32DDBAF1100F249A824F22DD102610
:1054F0005B4606E0AAF1100ABAF1100F04F10804A5
:1055000017DD01321033072A259324922760666045
:10551000F0DD4046494623AA03F0AEFF00287FF4A1
:1055200003AFAAF1100ABAF1100F259B249A30ACF0
:10553000E7DC9B460132D344072ACDF894B024928D
:1055400084E8800400F357830834069BDB0500F1F0
:105550005B82249B0B990E9A226001338B44072BAC
:10556000CDF894B06160249300F31D830834069B4A
:1055700059073AD50A9B079A9D1A002D35DD102D43
:10558000249B5B4F1EDD10265A4604E0103D102D73
:1055900004F1080415DD01331032072B2592249302
:1055A00027606660F2DD4046494623AA03F064FFA7
:1055B00000287FF4B9AE103D102D259A249B30AC05
:1055C000E9DC93460133AB44072BCDF894B0249328
:1055D0002760656009DD4046494623AA03F04CFF79
:1055E00000287FF4A1AEDDF894B0099B079A0A99D0
:1055F0008A42ACBF9B185B180993BBF1000F40F0C7
:10560000DE820023249330ACCFE5194606981D783E
:1056100040F004000690F8E50893069B13F0200381
:10562000B24600F073810C9F073727F0070303F1A0
:105630000802D3E900670C92002399E60C9A0893BC
:1056400013680E934FF0000B8DF86FB0171D002BF1
:1056500000F06086002E0E98C0F21286594632463F
:10566000FFF73AF8002800F091860E9BCDF83CB089
:10567000C31A0B930C9723EAE3730793CDF840B05A
:105680009DF86FC0AEE608931B4B1493069B8DF8F4
:105690006F209906B24640F155810C9F073727F0DD
:1056A0000703D3E9006703F108020C92069BDB07AE
:1056B00040F1E48256EA070300F0E082069A8DF892
:1056C0007150302342F002028DF8703006920223AE
:1056D0004EE61D781946002A7FF497AD202294E506
:1056E000069941F0200106911D7819468DE500BF0D
:1056F0000CBD0008B8BC0008ECBC00080893069B71
:105700008DF86F2043F010030693069B9806B2466F
:1057100040F1A2800C9F073727F00707D7E9002345
:1057200007F108010C9116461F46002A73F1000389
:10573000C0F21C849DF86FC0CDF83CA001231DE68B
:105740000893069B0C9F8DF86F201B07B246B3464B
:1057500007F1070740F19B8427F0070393ED007BD7
:105760008DED127B03F108020C92DDE9120102F0CB
:10577000B1FB0128DDE9120140F00684002200237C
:1057800004F0ECFB002840F0EE859DF86FC0069E0B
:10579000994A9A4B0321002026F08006472DD8BF56
:1057A0001A4607910F9006960E920B91109019E6EB
:1057B000069941F0080106911D78194625E51D78E6
:1057C00019462B2221E5069941F0800106911D78AA
:1057D00019461AE5A5F13000002113F8015B01EB31
:1057E000810100EB4101A5F130000928F5D90A91AA
:1057F0000CE50C9908933023069A8DF870300B460F
:105800000433782542F002020C937D4B1493B24688
:1058100006920E688DF8715000270223A8E50699BC
:1058200041F0010106911D781946EEE40C9D2968AE
:105830000A9108460028294601F10401C0F2EE84CD
:105840000C911D781946E0E40893069B8DF86F20B3
:105850009806B2463FF55EAF069BD90600F19B82E3
:10586000069B5A0640F197820C99B1F90060043109
:10587000F71732463B460C9157E7069941F0400135
:1058800006911D781946C0E41D7806996C2D00F02C
:10589000BE8441F0100106911946B6E40893069BB8
:1058A0008DF86F209A0640F1FD830C9A09991368D0
:1058B000CF170846043239460C92C3E9000174E45C
:1058C0001D782A2D03F1010100F02C86A5F130008E
:1058D00009280B464FF000063FF698AC13F8015B21
:1058E00006EB860600EB4606A5F130000928F5D93F
:1058F00046EAE6768AE40893069B43F01003069393
:10590000069B13F02003B2467FF48DAE069A12F088
:10591000100240F03882069B13F0400300F03382FF
:105920000C9913460A4604320E880C9200271FE594
:105930000893344B1493069B8DF86F209906B2465A
:105940003FF5ABAE069BDA0640F1D1830C9A1346C5
:10595000043316680C930027A8E60C9908930A688C
:105960008DF898200023012204319C4607920C9167
:105970008DF86F3026ABCDF83CC0CDF840C00B920F
:105980000E9335E50893069B43F010030693069BA0
:10599000B2469E063FF5E2AC069BD80640F19983DD
:1059A0000C9A134604321E680C9201230027DFE490
:1059B00008938DF86F20002D3FF4AFAC0023012237
:1059C0009C4607928DF89850D2E7DDF894B05BE5DD
:1059D000012B7FF4E5AC002F08BF0A2E80F0FF8179
:1059E0000DF5807B30360BF8416D30ABCBEB03030C
:1059F0000B93CDF838B0EDE4CCBC0008C8BC00086F
:105A0000ECBC0008D8BC0008652D40F38A80DDE9B5
:105A100012010022002304F097FA002800F03181DF
:105A2000249BAE4A226001330BF1010B0122072BAC
:105A3000CDF894B02493626000F3728308341D9B08
:105A4000119A934203DB069BDF077FF590AD249B01
:105A50001699159A226001338B44072BCDF894B028
:105A60006160249300F3E1830834119B5D1E002DD7
:105A70007FF77DAD102D249B994F40F39681102622
:105A80005A4604E00834103D102D40F38D81013357
:105A90001032072B2592249327606660F2DD404682
:105AA000494623AA03F0E8FC00287FF43DAC259A80
:105AB000249B30ACE7E70A9B079A9E1A002E7FF7DB
:105AC0000AAD102E249A864F1FDD4FF0100A5B4658
:105AD00004E0103E102E04F1080415DD01321033ED
